:02000004C0D06A
:10000000B0B58CB062B62448002404602348046074
:10001000234804602348012101702348017001F046
:100020002DF82248B022214601F0D6F801AD28462D
:1000300004F09EFC28851E49084202D001A80485D0
:1000400017E001A801F01DF801F0B8FA002004F053
:10005000F3F9012004F0F0F902F052FD15481649B9
:1000600001601648042116A2082301F093FD00F058
:1000700081FB01F073F901A9884203D101F070F905
:1000800000F0FFFF01A8008D002802D100200CB075
:10009000B0BD01F05EF9C046282000202C200020D1
:1000A000641F0020601F0020681F00206C1F0020BC
:1000B000FFFF00001C200020021000002020002074
:1000C0002564000070B582B005781424032D07DC88
:1000D000012D13D0022D0ED0032D17D120240DE0B9
:1000E000AC1F032C01D2846808E0042D05D0052D37
:1000F0000CD1402402E01C2400E03024069D6E4612
:100100003560746001F0B6FF02B070BD022001F0EE
:1001100020F980B50146202028290BDD2C2915DD8A
:10012000412924DD42292DD061292CD062292BD1EF
:10013000382080BD0A46242910DC213A022A22D325
:10014000232909D024291FD1422080BD2A2913DC6C
:10015000292901D02A2917D1302080BD253A022A29
:1001600011D3272901D028290ED1282080BD2D297F
:1001700009D0412907D007E02B2901D02C2903D130
:10018000402080BD392080BD022001F0E2F8F0B5AA
:1001900085B01C4615460E4607463878FFF7B9FF6E
:1001A0000C996A46D1604000083090600B9850600E
:1001B0000A981060384631462A46234601F0EAFF85
:1001C00005B0F0BDB0B505460F2028400024012839
:1001D00013D0022813D1002908D00C4802F054F89B
:1001E00068B2002809DA01F019FF06E0FF21523158
:1001F0000648002202F074F804462046B0BD0448C8
:1002000001210170022001F0A4F8C046F818002076
:10021000601F002080B501F043FB80BDF0B585B0C4
:10022000F14D2978F1480C2934DC05297BD00C29C3
:1002300000D0EDE0EE490A68824206D00860ED4841
:100240000421EDA2082301F0A5FCEC4C012020764E
:100250000026E6612046183001F0EAFFE06101F077
:1002600097FCE069E649884200D174E2002800D199
:1002700071E2E449884200D0C6E101F0CBF9A66002
:100280002068002800D166E2E069DD49884200D09C
:100290001EE160E20D2976D00E2900D0B8E0F74DBE
:1002A000286801280ADB401E2860C117C90D4018C4
:1002B0004312F3480421F3A201F06CFCF44C2078C3
:1002C000012800D02AE101F0A5F9EF4D0020A86037
:1002D0002968002924D0E969EC4A91421ED11FE027
:1002E000696888421CD201F0E5FF002818D1A8688F
:1002F000E968382670432A681018002902D0884718
:10030000002807D0012803D1A8684643286880192F
:1003100001F0C6FAA868401CA86029680029DFD14E
:100320000020207017E2D5490A68824206D0086092
:10033000D3480421D3A2082301F02CFCD24C012085
:1003400020760026E6612046183001F071FFE0615A
:1003500001F01EFCE069CD49884200D1FBE1002894
:1003600000D1F8E1A749884200D093E101F052F9A9
:10037000A6602068002800D1EDE1E069FB498842D1
:1003800000D0C8E0E7E1F84C6068A168814200D382
:10039000E1E1012020760025E5612046183001F0DA
:1003A00047FFE06101F0F4FBE069F049884200D1C9
:1003B000D1E1EF49884200D1A2E1002800D1CAE191
:1003C0002068002800D190E1A0686168884200D3CD
:1003D0008BE101F06FFF002800D086E1A068E168A2
:1003E0003825684322681018002902D08847002861
:1003F00007D0012803D1A06845432068401901F0C7
:100400004FFAA068401CA06021680029DDD16CE192
:10041000D54C012020760025E5612046183001F0FA
:1004200007FFE06101F0B4FBE069D149884200D0E8
:100430008EE001F0EFF8A5602068002800D18AE185
:10044000E069CA49884220D185E16068854200D3CD
:1004500081E101F02FFF002800D07CE1A068E16875
:100460003825684322681018002902D088470028E0
:1004700007D0012803D1A06845432068401901F046
:100480000FFAA068451CA56020680028DDD162E154
:100490006068864200D35EE101F00CFF002800D0C6
:1004A00059E1A068E16838256843226810180029DE
:1004B00002D08847002807D0012803D1A06845430F
:1004C0002068401901F0ECF9A068461CA66020687D
:1004D0000028DDD13FE16068864200D33BE101F0B6
:1004E000E9FE002800D036E1A068E16838256843BD
:1004F00022681018002902D08847002807D0012858
:1005000003D1A06845432068401901F0C9F9A068EB
:10051000461CA66020680028DDD11CE12868002860
:1005200000DCE9E0012109020A46FF32104088425E
:1005300000D010E101F06EF88B4C0020A060216823
:10054000002900D107E1E169884A914248D102E1DE
:100550002068002800D1C8E0A0686168884200D304
:10056000C3E001F0A7FE002800D0BEE0A068E1686B
:100570003825684322681018002902D088470028CF
:1005800007D0012803D1A06845432068401901F035
:1005900087F9A068401CA06021680029DDD1A4E093
:1005A0006168884200D3D6E001F084FE002800D0C4
:1005B000D1E0A068E1683825684322681018002956
:1005C00002D08847002807D0012803D1A0684543FE
:1005D0002068401901F064F9A068401CA0602168FF
:1005E0000029DDD1B7E0C04600180020021000004D
:1005F0001C20002020200020256400006C1F00200B
:10060000445010B0555010B0A0880490206803905A
:10061000EE79AB796F792A79ED78E1686846056003
:10062000416012023A431B0233430398049901F0DC
:1006300069F82068002858D0A0686168884254D2C0
:1006400001F038FE002850D1A068E16838256843E1
:1006500022681018002902D08847002807D00128F6
:1006600003D1A06845432068401901F019F9A0683A
:10067000401CA06021680029DFD136E01C2000204A
:1006800020200020256400006C1F0020445010B082
:10069000242000202069002803D0E978490801F0CF
:1006A00041F92068002820D0A068616888421CD2E7
:1006B00001F000FE002818D1A068E16838256843E1
:1006C00022681018002902D08847002807D0012886
:1006D00003D1A06845432068401901F0E1F8A06803
:1006E000401CA06021680029DFD16068A1688142B8
:1006F00031D301F0DFFD2EE0002001F083FD2AE080
:1007000000F088FFA5602068002824D0E069174920
:1007100088421ED11FE0606885421CD201F0CAFDEC
:10072000002818D1A068E1683825684322681018AD
:10073000002902D08847002807D0012803D1A068EB
:1007400045432068401901F0ABF8A068451CA5603E
:1007500020680028DFD101F0ADFD002801D100F0B4
:1007600005FE012005B0F0BD6C1F0020445010B004
:10077000555010B0F0B5E5B00025649563956295CD
:10078000E44FEE4E61A8058056AC204604F0F0F828
:100790002085DE4908420FD056A90D850F21090397
:1007A000014009221203914203D0032252039142D5
:1007B00073D161A9088077E056A800F062FC6398C5
:1007C00064900024639462986499C0B289B201F085
:1007D000E3F8649062946498002800D168E1387866
:1007E0008023802800D069E179786D20000206908E
:1007F00009200203C948072971DC022976D1C849BA
:1008000009688142C44C0AD0C549086004211C46CD
:100810000823C448C4A201F0BDF92346BE4CB878F1
:1008200007931843802800D055E12078002807D08E
:10083000C14801F051FC002020703060C0490860C0
:1008400002F0C6FA044630680119BE4A914200D34C
:1008500046E1BD490818791D224600F0C6FC306803
:10086000011931600022B948026038194271B87824
:10087000079B984207D1B2480160326000F06CF9E2
:1008800002F0EEF9B8781021629A0A4362920028C9
:1008900015D1002002F092F811E09D4908400D2189
:1008A000C902014361A801806198000A63997854E4
:1008B00061986399791848706398801C639000F080
:1008C0004DFD56A9884203D100F04AFD00F0D9FB46
:1008D00056A8008D002800D154E700F03AFD082901
:1008E00060D0FF2900D0F0E065B0F0BD042900D051
:1008F000EBE08B4B1968814208D0186089480421CD
:10090000144689A2082301F045F922466498182864
:1009100000D8ECE00892002081007A1853791B0679
:10092000947924041C43D3791B022343127A1A437B
:100930002CAB5A50401C0528EED1002568460560B6
:1009400022262CA9052239AF30463B4601F042FC55
:10095000202243AC30463946234601F0EBFB09AF79
:10096000304629462A463B4601F0CCFB012530465D
:10097000394622462B4601F0F5FB083765484124ED
:100980003946224600F031FC6394384600F07CFA88
:1009900066480078C01FC0B2012800D985E06448CD
:1009A000057082E008925E4A1168814208D01060AA
:1009B0005C4804215CA21D46082301F0EBF82B469D
:1009C0006498182800D899E00793A00039184A794C
:1009D00012068B791B041343CA7912021A43097A4F
:1009E000114334AA1150641C052CEED10024684632
:1009F0000460222534A905222CAE2846334601F096
:100A0000E9FB202239AB2846314604921E4601F00C
:100A100091FB43AF28462146059422463B4601F010
:100A200071FB01232846394632461E4601F09AFBE7
:100A30000837384D412428463946224600F0D5FB78
:100A40006394384600F020FA38480078C01FC0B2DE
:100A5000012801D8364806706398411C6391079AB3
:100A60007F322A546398411C63912A5409AC204672
:100A700001F032FB2E4624AD68460560012141237A
:100A800020463A46FFF71EFB639869463018049AE1
:100A90000A6048600598886039A8264903222B46D9
:100AA000FFF775FB639908186390089800F051FCF4
:100AB000012019490870274800F04BFC0120164915
:100AC00008703720400200F044FC012012490870F1
:100AD000069800F03EFC012020701D4800F039FC13
:100AE00001200D4908700698083000F032FC012002
:100AF000094908700698093000F02BFC01200649CE
:100B000008700698103000F024FCC046FFFF00007B
:100B1000FF070000F8180020601F002002100000EE
:100B20001C2000202020002025640000681F0020D9
:100B30002420002001060000F41A0020641F002079
:100B4000F01A002001040000601B00202820002073
:100B5000866A000082690000F0B5A7B00120C64394
:100B60000020964C984B7B44049331464143771CBC
:100B70003A464243A2185E23D25C1309049CE35C0C
:100B800022AC6354049B61188C4C0F252A409A5C5C
:100B90004A70401E01460931E7D10297039522A809
:100BA000007836280ED035281ED122A8407841285A
:100BB00000D28CE01DA931220A71EF3048718148C2
:100BC0001D900CE01DA931200871362048713A2093
:100BD000C8706D208870752048704E200870784865
:100BE000062200F002FB96E022A949783829029DEE
:100BF0001DD0312800D08EE0342900D08BE00020B9
:100C0000049F029D314641432A464243A21876235F
:100C1000D25C1309FB5C22AC63546118674C039BE4
:100C20001A40BA5C4A70401E01460931EAD1019669
:100C300000202946414322AA51180A7C1DAB1A54B0
:100C40001A18497C5170801C1028F2DB00242046C1
:100C50001DAB1E5CC922D025402E114600D8294666
:100C600089190901FF2636010E4019184B78402BCF
:100C700000D82A46D118C9B27118C20F821852087A
:100C800007239A1AD20091400C19801C1028DFDB30
:100C90000A252046294603F0CFFD30311DA8C17337
:100CA0000A21204603F0E2FC0646642C18DB0A21E8
:100CB000304603F0C1FD1DA8401930310171691E95
:100CC0002A1D0020002A0D463446E9DC1AE01DA941
:100CD00008713C481D903A48052200F086FA1AE057
:100CE0001DA8401930360671281D04280ADB1DA8EE
:100CF00041193A22CA706D228A7075224A704E21BB
:100D0000415528461DA909181022121A2C4800F036
:100D10006CFA019E294C0020049F029D31464143FC
:100D20002A464243A2184723D25C1309FB5C13AC4A
:100D300063546118214C039B1A40BA5C4A70401EF0
:100D400001461431EAD1002035463246424313AC05
:100D5000A1184E78C921D023402E0F4600D81F4637
:100D6000BE19A25C402A00D81946891809017118D9
:100D7000029A42430EAB9954401E014614312E464E
:100D8000E2D105AC0EA9204600F020F80C4D284613
:100D900012300B262146324600F027FA284624302E
:100DA00021460B31324600F020FA363516340C223B
:100DB0002846214600F019FA27B0F0BD601B00203C
:100DC000302000204E756D3AB43E0000F0B59BB067
:100DD000039004AC17202070601C142200F005FA68
:100DE000164E304601F078F913AF684607600125CA
:100DF0001523304629462246FFF764F9304601F0B4
:100E00006BF90BAE6846066020230C4829463A462B
:100E1000FFF758F9204615300422314600F0E5F975
:100E200022206946039A0A604860054878443A21BE
:100E30001923224600F080F81BB0F0BD8018002076
:100E4000FE3B0000F0B5A7B00392029104460CAD42
:100E5000284601F041F904AE68460660012728469D
:100E600039462246029BFFF72DF9284601F01EF96C
:100E70006846039901602023284639463246FFF729
:100E800021F927B0F0BD0000F0B5A1B00090284EC8
:100E9000284C7C441227304621463A4600F0A5F9FA
:100EA0001236304621463A4600F09FF9204D24354F
:100EB000284621463A4600F098F94020009A105CF6
:100EC000012101400220084318AC2070601C511C15
:100ED000202200F08AF90FAF21223A70781C2146B7
:100EE00000F083F92220AC2139540AAC14212046A9
:100EF00003F0A8FC232138462246FFF7A3FF01AFE9
:100F000038462146FFF762FF0B240948394622463E
:100F100000F06BF939460B313046224600F065F996
:100F200016370C222846394600F05FF921B0F0BD93
:100F300078200020763B0000F0B5B9B01E460D4683
:100F400003904C4C412E00D389E029A8114632462B
:100F500000F04BF90021002E0795009414D00020DA
:100F6000024629A9085C002803D1521CD0B2B04225
:100F7000F7D37100C8B2812807D33F48012101701F
:100F80000098401C00F0E5F90A460292D2B2B24243
:100F900001910C4633D2FF200302019C0298089372
:100FA000049205940690C5B20021B54211D20021E9
:100FB000069F344629AE725D080218401043079917
:100FC00003F050FB089B705526467F1CFDB2B542CE
:100FD000EFD329A8049A825C1846FF300840039991
:100FE000085C059C641EE1B209AB58540699481C84
:100FF000002A00D00846C2B2B242089BD0D3E1B268
:10100000019FB9420BD203980078029E09AA515C55
:10101000814205D1641CE1B2B942F7D300E0029EDF
:101020003F9831060ED0039909780594224633463D
:10103000521ED4B209AD29555B1EFF242342F7D1BD
:10104000059CA41BE1B27D1A85420ED83E9809AAE0
:1010500051182A4600F0C9F8284639B0F0BD0648B4
:1010600001210170204600F074F90098C01C00F0C6
:1010700070F9C046116D0000601F002000208146FD
:101080007047814670470000F0B581B000920F466E
:101090000546484B9F420FD0464C402620463146DD
:1010A00003F0D0FB00984028024600D33246204689
:1010B000394600F09AF83F4B987801280BDC00285D
:1010C0002BD0012869D1D81C04211C4600F0BAFF9E
:1010D000402120462CE0022828D005285DD118792F
:1010E000D97809020143344A1068002481425AD158
:1010F000324E00988019071F106800281BD0144634
:10110000394631402E480268914200D907683A4674
:1011100032402C480068591D31E000249C715C71FC
:101120001C71DC7040211846A8473CE02148402152
:10113000A847002437E098795979090201432248E9
:10114000016001684908A8292DD8144601681C4887
:1011500001601C491D4A0A6059781A7812020A4334
:101160001B490A601B49009A5718394631400268EA
:10117000914200D907683A463240D91D134800F021
:1011800034F837400F480168C91901600C480168FC
:10119000C91B01602068401C2060094801680120CB
:1011A0000224002903D10448002101602046C0B276
:1011B00001B0F0BDB01A0020EC180020FFFF0000C5
:1011C000F41800204C1A0020F0180020F818002015
:1011D000501A0020F9FF010080B50B46002A03D009
:1011E00011461A4603F038FB80BDB0B588420DD9D0
:1011F000002A14D0491E5242401E0023DB431C46E5
:1012000054430D5D0555521CF9D108E0002A06D063
:1012100000239CB20D5D05555B1C521EF9D1B0BD7B
:101220000148002101607047EC180020F0B585B03E
:10123000019300920E460390002E47D0324C0020BE
:101240002060324932480860324F781D39250290BB
:10125000294603F0F7FA304801460868000A38705A
:10126000086878700520B8702068000AF870206857
:101270003871B1B22068002804910AD03B203B2984
:101280000E4600D3064621480246116802981546CC
:1012900009E0300A7871BE7139290E4600D32E4616
:1012A0001A4D2968F81D3246FFF79FFF164C286833
:1012B000801928602068401C206040213846039A2D
:1012C00090470498861B15480642BED10E4800245C
:1012D00004608020019D054201D000F09FFEA80619
:1012E0000FD40C4C009D40212046A847C2B2402A92
:1012F000F9D803982146FFF7C7FE0228F3D1084822
:101300000468A0B205B0F0BDEC1800204C1A002013
:10131000F8180020B01A0020501A0020FFFF00002B
:10132000F018002070B5431E491E52420020C443ED
:10133000002A0CD0264656438D5D9E5D521CAE425F
:10134000F6D00020C1430120AE4200D80846C0B20A
:1013500070BD80B50146484603F016FB484670470D
:1013600000204946002900D04869704780B500F048
:10137000A1FF00280BD106486021017000214170B7
:1013800002228270C1700171052100F07DFF80BDD5
:101390000018002010B51348C078032807DC012886
:1013A0000DD002281DD1104802F06DFC10BD04289C
:1013B00014D0082815D10C4802F063FC10BD0A4C6B
:1013C0000121204602F058FC204602F034FC074878
:1013D0000078002805D01020FFF7BBFF024802F07C
:1013E0004EFC10BD00180020B82000205C1A002020
:1013F0007F2101400148405C7047C0465D1A0020D3
:1014000080B510480179042908D0022911D001299A
:101410000ED1811D0D4802F007FB80BDC2787F21EF
:1014200011404279084B5A54821D084802F02BFBA8
:1014300080BDC2787F211140821D044802F082FBEA
:1014400080BDC046001800205D1A0020B820002092
:10145000F0B581B014460546FF2C3AD81F4E5020F7
:101460003070E01C0091010A7170B070802005435B
:10147000F570202030717471062130461F4600F04F
:1014800003FF0098214600F0FFFE781C022820D3BD
:1014900006E0152902D1B07900071CD500F020F82C
:1014A00000F008FF002801D1FFF760FF8021002233
:1014B000304600F015FF31780628EAD11029E8D12E
:1014C000F078A842E5D130790228E2D17079A042C3
:1014D000DFD101B0F0BD1020FFF73BFF0018002066
:1014E00080B51E48827841780902114300780F28A0
:1014F0000ADC0E2810D00F281DD10020042921D18C
:10150000FFF748FF012080BD102818D0162812D1FF
:1015100000F032F8012080BD1148016800290AD08E
:1015200002686421632A00D801680268511A0160C8
:10153000006800280BD00220FEF770FE80BD00205E
:10154000062900D280BDFFF75BFF012080BD054862
:10155000002101701020FFF7FCFEC046001800209B
:10156000581A0020641A002080B50A4601468220DD
:101570001423FFF76DFF80BD80B50B48017800296B
:1015800010D10A4905220A700A21017008488178A1
:10159000427812020A4307490A800A88C11C064899
:1015A000FFF723FE80BDC046641A00205C1A0020AD
:1015B00000180020661A0020F818002010B5082036
:1015C00000F016FD0A48002404700A4804800A4806
:1015D00004800A4804800A4804700A480460FFF73F
:1015E0001FFE09480460094804600948046010BDF2
:1015F000641A0020681A0020661A00206A1A002067
:101600005C1A0020541A00206C1A0020701A002066
:10161000741A002001480021016070476C1A0020F4
:10162000B0B50D460446206B00280CD000F0C8FC75
:1016300001462046884700F0C3FC0021002810D056
:10164000012800D00446002D07D02046A8470021DD
:10165000002806D0012800D004462046FEF7DAFD17
:1016600001210846B0BDB0B58EB00C460546686B8A
:1016700000280CD000F0A4FC01462846884700F062
:101680009FFC0021002816D0012800D0054668469E
:1016900038222946FFF7A9FD686A0490A86A0590D8
:1016A000002C04D02846A0470021002803D068461B
:1016B000FEF7B0FD012108460EB0B0BDB0B50D4635
:1016C0000446E06A00280CD000F07AFC014620466F
:1016D000884700F075FC0021002810D0012800D0B8
:1016E0000446002D07D02046A8470021002806D038
:1016F000012800D004462046FEF78CFD0121084653
:10170000B0BD0000F0B587B00293039205910029A7
:1017100077D004900D9801900C98009000253C4BD8
:1017200006952F461E4600F0C5FD002855D13820ED
:101730006843049C251833461A680121954200D05D
:10174000069906912056002841DA2020285C0221C3
:10175000695E0A1A039CA24239DC4118EA8889189A
:10176000039A8A4233DA04216C5E221A02998A4271
:101770002DDC2018298940180299814227DA18683F
:10178000854210D0186800280DD00198002805D097
:101790002846019988473346002818D018680199CF
:1017A000FFF73EFF08E00098012809D002280ED17B
:1017B00028460199FFF782FF3346002807D022E030
:1017C00028460199FFF74FFF334600281ED17F1CA2
:1017D000FDB205988542A5D300E033460698000681
:1017E0000FD0186800280CD000F064FD31460028A6
:1017F00007D108680199FFF713FF002801D00020E6
:10180000306007B0F0BD00201860FAE71D60F8E70F
:101810006C1A0020F0B589B00C46014602AD1C22BE
:1018200028460192FFF7E1FC2168E98062682A817D
:10183000A0681A4F65233B7092B242438BB2534368
:10184000D9084E1C0722134200D10E4631460091A2
:101850000426864070181D30010A7970B870032183
:10186000384600F011FD2846019900F00DFDA068F2
:1018700038700121384600F007FDE06800F0A0FB59
:10188000B1B200F001FD009885B2206900F098FB2C
:10189000294600F0F9FC09B0F0BDC0460018002050
:1018A00070B5044620787F26064000F003FD00282E
:1018B00030D1002E2ED0E06900281DD000F080FB32
:1018C0000546052E02D1A07E002824D0284603F02C
:1018D00069F8064612486521017031461C310A0A32
:1018E00042708170032100F0CFFC1C21204600F0E3
:1018F000CBFCB1B228460BE00948652101700021FC
:1019000041701C258570032100F0BEFC204629464D
:1019100000F0BAFC70BD20462946FFF77BFF70BD82
:1019200000180020F0B581B00446002C2BD01748D9
:1019300002688A4203D1164A13685B1C136006686A
:101940000E43134A1568134F002901D0066004E0C6
:101950000023036013607B1C1E430068884201D093
:1019600000201060082D0BD30321284602F07AFED8
:10197000012080073043002900D03046384000E085
:1019800030462946A04701B0F0BDC046701A00207D
:10199000741A0020FFFFFF7FF0B583B00D460446A8
:1019A0000F20044207D020462946FEF70BFC0546CF
:1019B000A8B203B0F0BD10262640694F002D6FD0AD
:1019C000002E6DD17D2000016649086066490878C7
:1019D0000828029717DD092821D00A2845D10F468B
:1019E0006808A92800D3B7E0624853210170290A8A
:1019F00041708570032100F047FC5C48294600F0E7
:101A000043FC394639E007282DD16048784400224C
:101A100020230F462946FFF709FC39462DE0E81D33
:101A200001904008A92800D396E07C20C0430D30E7
:101A30004E4948554819002747700298001DAA1CB6
:101A40000240481D0D46FFF7D0FB052228463946C7
:101A5000FFF7C2FB019883B2454883212A4600F074
:101A60009FFF414909E0002873D020460F462946D0
:101A7000FEF7A8FB394600286BD100250D703E48C3
:101A800005803E4805803E4805803E480570A0061A
:101A90008ED4FFF76BFC2006029F01D500F0BEFA42
:101AA000002E0CD1600650D42F480021017032481E
:101AB00001803248018032480180324801702D4C4B
:101AC0002E4E2F4F02E00220FEF7A8FB00F0F2FBA3
:101AD000002801D1FFF74AFC8021002520462A4634
:101AE00000F0FEFBC11EA27863781B0213439942EB
:101AF00015D124490978002902D0FFF7F1FCE5E768
:101B000021780F2906D0102911D01629DBD1FFF733
:101B100033FD11E0042802D1FFF73CFCD6E700209A
:101B2000114908701449088030803880CEE70628B3
:101B300000D23DE7FFF764FC30880028C6D0124889
:101B4000006808490860358832E70C480088C519E4
:101B50002EE70920FFF7FDFB0220FFF7FAFBC04646
:101B6000FBFF0000581A0020641A0020F81800201B
:101B7000781A002000180020681A0020661A002039
:101B80006A1A00205C1A0020541A002059FBFFFF3B
:101B90007047000081B0F0B590B016460C460A9030
:101BA0001593022C00D2F0E10A98002800D1ECE154
:101BB000002E00D1E9E100210A9807912246FFF7A3
:101BC0000BFB15A80B903078002800D1DDE10799B8
:101BD000C943651E0591BDE13019315D25290BD141
:101BE00003930292431C0020202108910A210191B5
:101BF00000900490099056E006460A921EE1334692
:101C000008464BE0472B13DC194630390A2934D2F9
:101C1000302B089900D11946099D002D00D0089954
:101C20000A226A43D218303A0992334608913AE0C0
:101C3000672B04DD722B09DD732B46D10AE0622B82
:101C400048DC482B55D10122049201E0682B56D183
:101C5000102201920B9A131D0B93032318404D1C65
:101C60001168012800D1CEE0022800D1D0E003287D
:101C700033462846069D16D0E7E02E2B00D0CAE05A
:101C800030782A2800D0C6E07178731C01204829DA
:101C900004D0682902D0732900D0BCE00B990A1D3A
:101CA0000B920968009102211E463378761C0022AF
:101CB0002D2BA7DC1046F8D0252B2AD02A2B00D0BC
:101CC000A9E0307873289AD0A5E0752B23D0782B23
:101CD00018D0A0E0632B00D18BE0642B00D09AE0F9
:101CE0000B98011D0B910068C11742184A40C00FA4
:101CF00016E0582B00D08EE00120049002E0702BFB
:101D000000D088E00B98011D0B910268002010257F
:101D100007E0252071E00B98011D0B91026800205F
:101D20000A25069001270A92954212D801242846D6
:101D30000746294602F010FCA04209D12846784304
:101D40000999491E09910A9988423C46F0D900E058
:101D500027460024E143069B002B00D11946099831
:101D6000019140180899CAB2302A06D1002B04D03C
:101D70000CA92D230B7000230124811E0D290CD8E2
:101D8000411E0AD00CA82043069302F065FD069B75
:101D90000998001901994018441E002B03D00CA883
:101DA0002D210155641C0498002F18D0002801D063
:101DB00079A000E07CA009900A98394602F0CCFB9B
:101DC000294602F04FFC0998405C0CA9085538469A
:101DD000294602F0C1FB641CBD420746ECD9039BB7
:101DE0009C4200D31C460CA9029D284622461F4651
:101DF0001BE00B98011D0B91006802990870039875
:101E0000401E491C15E0009C059A039B069D24E09A
:101E10000878002875D00520039F052F3C4600D385
:101E20000446029D284664A12246FFF7DEF9381BCE
:101E300029190A910346002800D1A6E0307800282D
:101E400005991D4600D085E09FE0059A1446039B46
:101E500008194078641C0028FAD1019810280298CB
:101E600044D1002C74D008910A988318501B8742E3
:101E7000394600D8014603914A430292501C019012
:101E800000202A460A9302995B1809900899085C79
:101E90000F250540000903998918491C022974D3AC
:101EA0000499012903D0002908D13FA100E03AA1FB
:101EB000C0B2085C1870E8B2085C58700198904293
:101EC00063D0921E0A9B9B1C0998401CA042D9D348
:101ED000099005990698081A874200D807460846CF
:101EE000784318180A90B818431C1CE09C4200D391
:101EF0001C46224605461F46FFF777F9381B29196D
:101F00000DE0039B009F9F4200D31F462021029DAE
:101F100028463A46FFF760F90398C01BE9190A9171
:101F20000346002831D00998A04287D9041B1D46DA
:101F3000AC4200D32C4620210A9F38462246FFF7A8
:101F40004BF92D1B3F190A972B46002D1DD075E725
:101F50000A9073E70F46079C03E0301940787F1E14
:101F6000641CC0B2002801D02528F6D1AC4200D3B1
:101F70002C460A9831462246FFF737F906952B1B67
:101F80000A980219002B00D026E6002010B0F0BC01
:101F900002BC01B00847C0463031323334353637E1
:101FA000383941424344454630313233343536378F
:101FB00038396162636465664552524F52000000D1
:101FC00080B50449884204D30349884201D200F015
:101FD00005F880BD0000D0C0805AD0C07A460249C2
:101FE000C91C891A401A7047DD1FD0C001DF704735
:101FF00080B582B0009007486946FFF7F7FF01AA55
:1020000011600549884201D102B080BD0420FFF76C
:10201000A0F9C04637010060C601009080B582B0CB
:10202000064801A9FFF7E2FF6A46116004498842A9
:1020300001D102B080BD0420FFF78BF900020060DF
:10204000F102009080B584B001900291074801A987
:10205000FFF7CCFF03AA11600549884202D103981B
:1020600004B080BD0420FFF774F9C0462C05006061
:102070006705009080B588B001AF0FC70A9805903A
:102080000B980690074801A9FFF7B0FF07AA116057
:102090000549884202D1079808B080BD0420FFF7A7
:1020A00058F9C0463B070060AD07009080B582B08C
:1020B000009007486946FFF799FF01AA116005499A
:1020C000884202D1019802B080BD0420FFF741F997
:1020D0007F080060F808009080B582B00090074843
:1020E0006946FFF783FF01AA11600549884202D1C2
:1020F000019802B080BD0420FFF72BF9DB0A0060D5
:10210000640A009080B586B001AF0FC7074801A9E7
:10211000FFF76CFF05AA11600549884202D10598B6
:1021200006B080BD0420FFF714F9C046ED2A006018
:10213000492A009080B586B001AF0FC7074801A9B2
:10214000FFF754FF05AA11600549884202D105989E
:1021500006B080BD0420FFF7FCF8C046EA2B006003
:10216000632B009080B586B001AF0FC7074801A967
:10217000FFF73CFF05AA11600549884202D1059886
:1021800006B080BD0420FFF7E4F8C0462E2C0060A6
:10219000742C009080B58AB001AF0FC70C980590E1
:1021A0000D9806900E9807900F980890074801A97F
:1021B000FFF71CFF09AA11600549884202D109985E
:1021C0000AB080BD0420FFF7C4F8C046F3350060B4
:1021D0007635009080B586B000AF0FC708980490A0
:1021E00006486946FFF702FF05AA116004498842C4
:1021F00001D106B080BD0420FFF7ABF8BA500060F3
:102200001E50009080B582B0009007486946FFF7E5
:10221000EDFE01AA11600549884201D102B080BDDE
:102220000420FFF796F8C046E15F00606F5F009002
:1022300080B582B0009007486946FFF7D7FE01AA33
:1022400011600549884202D1019802B080BD042086
:10225000FFF77FF8586100601F61009080B582B081
:10226000074801A9FFF7C2FE6A4611600549884286
:1022700002D1009802B080BD0420FFF76AF8C04682
:10228000D66700604467009080B584B001900291E9
:10229000064801A9FFF7AAFE03AA11600449884273
:1022A00001D104B080BD0420FFF753F81C6E00601C
:1022B000F36E009080B582B0074801A9FFF796FE43
:1022C0006A4611600549884202D1009802B080BD7B
:1022D0000420FFF73EF8C046CF6F00607F6F00908C
:1022E00080B584B000AB07C307486946FFF77EFEA0
:1022F00003AA11600549884203D103A8008804B0ED
:1023000080BD0420FFF725F8D17000602B7000908D
:10231000F0B585B021490A788321002A02D0244AE9
:102320007A4404E00A9A452A06D8224A7A440223CB
:1023300000F036FB05B0F0BD01AC07C440200493AB
:102340001F5C002F0ED0049E4136002414A5E0B27D
:10235000032102F087F9305D695C41403155641C0E
:10236000A742F4D145200499085C4630039A824282
:102370000DD141310B483A46FEF737FF0A48078036
:102380000A4806210170092004490870D2E70A4A68
:102390007A44022301980299CAE7C046641A0020D1
:1023A0004F4E5400F8180020661A00205C1A0020D6
:1023B000462700003C270000DA260000F0B581B077
:1023C0001D460E460446284600F0DAFA012804D1DC
:1023D00068460421FFF736FE04E0684604222946D9
:1023E000FEF703FF174F082238463146FEF7FDFE81
:1023F0003846083069460422FEF7F7FE022038739B
:10240000002078730121B973F8733874284600F0FE
:10241000B7FA8625012807D128467930C1B20422AF
:102420002046FEF7D9FE04E0694604222046FEF766
:10243000DCFE044A11232046294600F0B1FA01B01F
:10244000F0BDC046F8180020F0B583B00B460290EE
:10245000987959790F02074359781E781546093D36
:10246000A8B2832401941F4C874203D0D21F14408A
:10247000A7421BD13D46002E08D01B4A7A440223B6
:102480000298019900F08CFA03B0F0BD022917DC24
:10249000012920D002291BD1A8B269460860DB1DA2
:1024A000002102980A46FFF733FFEDE7E8B28742C2
:1024B000E1D0D0B287421546DDD00C4A7A44DEE73F
:1024C00003290BD0C12903D1094A7A440423D7E751
:1024D0000A4A7A44D3E7074A7A44D0E7064A7A445C
:1024E0000823CDE7FFFF0000FC250000AC2500001D
:1024F000AA2500008C2500008E250000A8250000DC
:1025000080B581698A784B781B0213430A78812A47
:1025100009D0832A0CD0862A0ED1C91C002203467A
:10252000FFF74CFF80BDCA1C812100F039FA80BD45
:10253000C91C1A46FFF788FF80BD000070B50D4624
:102540000146012A11D1094C20462A46FEF74DFECC
:1025500060194026721B00252946FEF73DFE8120AA
:10256000214632462B46FEF773FF70BDB01A00209D
:102570008160828100220277428242778275816186
:1025800070470000F0B583B00446207FC01EC0B283
:10259000012854D8A68A628A964223D904230020AF
:1025A0000291012900D003460190A07D0327012557
:1025B000002800D02F461F434023DD1BB11AA9423B
:1025C00000DC0D46EE190299012906D11D480422AE
:1025D00021460192FEF709FEA07D00280BD0FF30B6
:1025E000019915E02BD10020207760826077A075DB
:1025F000A068A06123E03420205C019B99B2114ABD
:1026000050540120184381B2637D5354411C207DF6
:1026100089B20C4B5854A169002905D0AAB2D81927
:10262000638AC918FEF7E1FD608A40196082A07DC7
:10263000401CA075B1B20348029AFFF77FFF03B0B8
:10264000F0BDC046B01A0020F0B589B01E46044661
:102650002671207F831E85250895022B10D2C34842
:1026600006210172042121770021A1750830A061A3
:1026700061820120A08208993A313420215463E01C
:10268000042806D10020207760826077A075A068BA
:10269000A061079104210020012E00D001460123F2
:1026A0000D461D43AA4241D30691012E059209D140
:1026B00004222046079904961F46FEF796FD059AC8
:1026C0003B46049E608AAA49002803910ED0012E41
:1026D00027D120460E300422214604961F46FEF7DD
:1026E00021FE059A3B46049E00281AD0032706992E
:1026F00008463843824219D304970798471802972F
:10270000405608997A3149B288423CDD9748042105
:10271000017221770021A1750830A0616182A38236
:10272000A9E7022006990843824213D28F48089AEB
:102730000272042121770021A1750830A061618215
:10274000A3823A323420225421792046FFF71AFF1F
:1027500009B0F0BD607FB04248D1207F012852D13E
:10276000012E75D1042207982146029204961F4635
:10277000FEF7D8FD3B46049E002869D07B48062121
:1027800001720299C5E70193012E049F12D1207FA7
:1027900001281BD121460E3104222046FEF7C2FD3E
:1027A000002807D0029800780899491CC9B28842CD
:1027B00000D0C1E0207F012808D1012E67D1029806
:1027C00000780899491CC9B2884260D10220069954
:1027D00008430799085C495D0D020543A089C01EA6
:1027E00085421BDD61480772042153E0089A1046B8
:1027F00008305E490872042020770020A075083157
:10280000A16160829CE7012E00D07FE70020207745
:1028100060826077A075A068A06199E7029800784F
:102820008128019A03D086283CD0832873D1012EB9
:1028300043D150497944042720463A46FEF772FDB9
:10284000002800D18CE04C4979440422204630E035
:102850000698079A1118105CA27D904200D055E7A7
:1028600001930598451B608AA28A121A954200DBE3
:102870001546039A2A40A3691818491CFEF7B5FCAF
:10288000608A40196082A07D401CA0752EE0374808
:102890000421017221770021A1750830A0616182B5
:1028A0000198E7E6012E36D13449794404272046C1
:1028B0003A46FEF737FD002852D005980699471A88
:1028C000ED1CAF42039900DB2F463940A0690A4650
:1028D0000299FEF78AFC6782A58266770020A075C0
:1028E00020460E3004222146FEF77FFC608A012E2E
:1028F000019B01D1A18A08E0A18ACA1C904204D997
:102900001A4803210172042103E788420ED20020F5
:10291000A06223771CE71548027204212177002169
:10292000A1750830A0616182A282A4E6022020770E
:102930002046FFF7E5FD0BE70C4D04222846214613
:10294000FEF753FC08983A30287100206871019A0C
:10295000AA710620E87108212846FFF7EFFDF7E687
:1029600002480B210172277795E7C046B01A002074
:10297000FFFF00004822000038220000D62100009E
:1029800080B5064979440422FEF7CCFC01460120BB
:102990000022002900D0104680BDC046F82000006B
:1029A00010B50324047700248475826144828382F5
:1029B00034228154417FFFF7E5FD10BDF0B5B9B079
:1029C000484FB8780025802180282C467BD107917C
:1029D000089545480568002468460460143D43484E
:1029E000434E214632462B46FDF76CFB7019A10081
:1029F000425C120643185D782D0415439A78120242
:102A00002A43DB78134334AA5350641C052CEED1BF
:102A10000021099168460160222434A905222CAFC7
:102A200020463B46FFF7D6FB202522AB06932046E7
:102A300039462A460495FFF77DFB1AAC68460460C8
:102A40002A4F01262A4A38463146099BFDF73AFBB0
:102A50003846FFF741FB12AF6846076005972348E9
:102A6000314622462B46FDF72DFB2048FFF734FB6D
:102A70000AAC684604601D4831463A462B46FDF7CD
:102A800021FB6846056017490F464760099D856030
:102A90001849032206982346FDF779FB0446164899
:102AA00006701648056010480560079D28467F306F
:102AB000385539194870881C0599049A01F0C8FEE8
:102AC00029462234089D1031395538194570A01C0B
:102AD00081B22020FEF760FF00F012F8284639B0DE
:102AE000F0BDC046F8180020F01A0020F41A0020AB
:102AF000601B002001060000601F0020641F0020F2
:102B0000B0B54548012101700C02FFF7A7FB204238
:102B100040D1424C454878442060042060604448DD
:102B2000784420610025E56003202076E561204699
:102B30001830FFF77DFBE061FFF72AF8FEF76AFD2A
:102B4000A5602068002865D0E069354988421ED11B
:102B500060E0606885425DD2FFF7ACFB002859D188
:102B6000A068E1683825684322681018002902D05F
:102B70008847002807D0012803D1A0684543206872
:102B80004019FDF747FBA068451CA5602068002898
:102B9000DFD13FE0214C234878442060052060606D
:102BA0002148784420610025E56003202076E56116
:102BB00020461830FFF73CFBE061FEF7E9FFFEF727
:102BC00029FDA5602068002824D0E06914498842C6
:102BD0001ED11FE0606885421CD2FFF76BFB002806
:102BE00018D1A068E16838256843226810180029C8
:102BF00002D08847002807D0012803D1A0684543A8
:102C000020684019FDF706FBA068451CA5602068F8
:102C10000028DFD1B0BDC046681F00206C1F002017
:102C2000445010B0281F00008F000000C220000098
:102C3000150100000020704780B50749884205D083
:102C40000649884205D100F0D1F802E00020FFF7E4
:102C5000D9FA002080BDC04601000080020000803B
:102C6000B0B545480221017001200402FFF7F6FAD1
:102C7000204240D1414C45487844206006206060A5
:102C80004348784420610025E56003202076E56113
:102C900020461830FFF7CCFAE061FEF779FFFEF727
:102CA000B9FCA5602068002865D0E06934498842F5
:102CB0001ED160E0606885425DD2FFF7FBFA002814
:102CC00059D1A068E16838256843226810180029A6
:102CD00002D08847002807D0012803D1A0684543C7
:102CE00020684019FDF796FAA068451CA560206889
:102CF0000028DFD13FE0214C2248784420600720A3
:102D000060602148784420610025E560032020763A
:102D1000E56120461830FFF78BFAE061FEF738FFD7
:102D2000FEF778FCA5602068002824D0E0691449EB
:102D300088421ED11FE0606885421CD2FFF7BAFAB4
:102D4000002818D1A068E168382568432268101867
:102D5000002902D08847002807D0012803D1A068A5
:102D6000454320684019FDF755FAA068451CA56049
:102D700020680028DFD1B0BD681F00206C1F002034
:102D8000445010B0EE2100008D000000302B0000F8
:102D9000130100000020704780B50A49884208D01E
:102DA0000949884209D00949884209D1FFF706FE3E
:102DB00006E0002000F054F902E0002000F07CF969
:102DC000002080BD01000080020000800300008020
:102DD000014800797047C046F818002010B500245B
:102DE0002046FFF70FFA204610BD000070B53A48A4
:102DF00007210170FFF732FA0446384D394878440C
:102E00002860052068603848784428610026EE6014
:102E100003202876EE6128461830FFF709FAE861AA
:102E2000FEF7B6FEFEF7F6FBAE602968E869012200
:102E30001202144228D100294CD02949884249D095
:102E4000002847D000206968884243D2FFF732FA51
:102E500000283FD1A868E968382460432A68101820
:102E6000002902D08847002807D0012803D1A8688C
:102E7000444328680019FDF7CDF9A868401CA860F4
:102E800029680029DFD125E0002923D01449884290
:102E90001ED11FE0686886421CD2FFF70BFA00289B
:102EA00018D1A868E968382460432A6810180029F6
:102EB00002D08847002807D0012803D1A8684443DE
:102EC00028680019FDF7A6F9A868461CAE602868B6
:102ED0000028DFD170BDC046681F00206C1F002095
:102EE000445010B0BA1E0000E1000000B0B54A49DD
:102EF000884206D04949884201D1FFF701FE0020EF
:102F0000B0BD47480821017001200402FFF7A6F96F
:102F1000204240D1434C47487844206005206060FF
:102F20004548784420610025E56003202076E5616E
:102F300020461830FFF77CF9E061FEF729FEFEF726
:102F400069FBA56020680028D9D0E069364988422D
:102F50001ED1D4E760688542D1D2FFF7ABF90028D3
:102F6000CDD1A068E168382568432268101800298F
:102F700002D08847002807D0012803D1A068454324
:102F800020684019FDF746F9A068451CA560206837
:102F90000028DFD1B3E7234C244878442060052083
:102FA00060602348784420610025E5600320207696
:102FB000E56120461830FFF73BF9E061FEF7E8FDD8
:102FC000FEF728FBA5602068002898D0E069164924
:102FD00088421ED193E76068854290D2FFF76AF974
:102FE00000288CD1A068E168382568432268101851
:102FF000002902D08847002807D0012803D1A06803
:10300000454320684019FDF705F9A068451CA560F7
:1030100020680028DFD172E70100008002000080F4
:10302000681F00206C1F0020445010B01E1D0000BF
:1030300045FFFFFFB81E00001701000080B50649DC
:10304000884205D00549884204D1FFF759FD01E0C7
:10305000FFF7CCFE002080BD010000800200008050
:1030600080B512480078032808DD04280DD0052813
:103070000ED0062813D100F017FA0EE002280AD06D
:1030800003280CD1FFF7ECFD07E000F0DBF804E0CB
:1030900000F070F901E000F03BF8002080BD04482A
:1030A000012101700348FEF754F9C046681F002053
:1030B000601F0020026D000080B5124800780328D0
:1030C00008DD04280DD005280ED0062813D1FFF7FF
:1030D000C7FD0EE002280AD003280CD100F04AF9FF
:1030E00007E000F0E1F904E000F012F801E000F080
:1030F000A9F8002080BD0448012101700348FEF7B3
:1031000028F9C046681F0020601F0020016D0000E4
:10311000B0B545480625057001200402FFF79EF86A
:1031200020423FD1414C4548784421C4444878442A
:10313000A06000256560032020746561083C20467E
:103140001830FFF775F8E061FEF722FDFEF762FA2E
:10315000A5602068002865D0E069354988421ED105
:1031600060E0606885425DD2FFF7A4F8002859D17D
:10317000A068E1683825684322681018002902D049
:103180008847002807D0012803D1A068454320685C
:103190004019FDF73FF8A068451CA560206800288D
:1031A000DFD13FE0214C2348784420600720606055
:1031B0002148784420610025E56003202076E56100
:1031C00020461830FFF734F8E061FEF7E1FCFEF727
:1031D00021FAA5602068002824D0E06914498842BB
:1031E0001ED11FE0606885421CD2FFF763F80028FB
:1031F00018D1A068E16838256843226810180029B2
:1032000002D08847002807D0012803D1A068454391
:1032100020684019FCF7FEFFA068451CA5602068E7
:103220000028DFD1B0BDC046681F00206C1F002001
:10323000445010B0C81E000027040000D020000039
:10324000AF04000070B54448032606700120040254
:10325000FFF704F820423FD1404C444878442060B6
:10326000062060604248784420610025E5602676AB
:10327000E56120461830FEF7DBFFE061FEF788FCD1
:10328000FEF7C8F9A5602068002864D0E0693449D9
:1032900088421ED15FE0606885425CD2FFF70AF881
:1032A000002858D1A068E1683825684322681018C2
:1032B000002902D08847002807D0012803D1A06840
:1032C000454320684019FCF7A5FFA068451CA56090
:1032D00020680028DFD13EE0204C2248784420605E
:1032E000082060602048784420610025E56026764B
:1032F000E56120461830FEF79BFFE061FEF748FCD1
:10330000FEF788F9A5602068002824D0E0691449F8
:1033100088421ED11FE0606885421CD2FEF7CAFFBA
:10332000002818D1A068E168382568432268101881
:10333000002902D08847002807D0012803D1A068BF
:10334000454320684019FCF765FFA068451CA5604F
:1033500020680028DFD170BD681F00206C1F00208E
:10336000445010B06C2000009F030000AC2200000D
:1033700023040000B0B54548042101700120040277
:10338000FEF76CFF204240D1414C45487844206014
:10339000062060604348784420610025E5600320F2
:1033A0002076E56120461830FEF742FFE061FEF727
:1033B000EFFBFEF72FF9A5602068002865D0E069D3
:1033C000344988421ED160E0606885425DD2FEF7D4
:1033D00071FF002859D1A068E16838256843226848
:1033E0001018002902D08847002807D0012803D1EF
:1033F000A068454320684019FCF70CFFA068451CF5
:10340000A56020680028DFD13FE0214C22487844A5
:103410002060082060602148784420610025E56034
:1034200003202076E56120461830FEF701FFE061B9
:10343000FEF7AEFBFEF7EEF8A5602068002824D06A
:10344000E069144988421ED11FE0606885421CD2A1
:10345000FEF730FF002818D1A068E16838256843DE
:1034600022681018002902D08847002807D00128B8
:1034700003D1A068454320684019FCF7CBFEA06843
:10348000451CA56020680028DFD1B0BD681F002062
:103490006C1F0020445010B03A1F00006D02000065
:1034A000CC2200001B030000B0B545480521017087
:1034B00001200402FEF7D2FE204240D1414C454893
:1034C00078442060062060604348784420610025ED
:1034D000E56003202076E56120461830FEF7A8FE5F
:1034E000E061FEF755FBFEF795F8A560206800281F
:1034F00065D0E069344988421ED160E06068854249
:103500005DD2FEF7D7FE002859D1A068E1683825C2
:10351000684322681018002902D08847002807D085
:10352000012803D1A068454320684019FCF772FECA
:10353000A068451CA56020680028DFD13FE0214C31
:103540002248784420600720606021487844206148
:103550000025E56003202076E56120461830FEF75F
:1035600067FEE061FEF714FBFEF754F8A5602068E3
:10357000002824D0E069144988421ED11FE0606809
:1035800085421CD2FEF796FE002818D1A068E1689B
:103590003825684322681018002902D0884700287F
:1035A00007D0012803D1A068454320684019FCF7E3
:1035B00031FEA068451CA56020680028DFD1B0BDA1
:1035C000681F00206C1F0020445010B0A619000096
:1035D00045F8FFFFE8220000CBF8FFFF002070470E
:1035E00080B51349884219D0124988421AD012492D
:1035F00088421AD11148012101701148002101604F
:103600001048016010486921017085214170202017
:103610000221FEF7C1F9FFF773FA06E00020FFF779
:103620001FFD02E00020FFF747FD002080BDC046DF
:10363000010000800200008003000080601F002065
:10364000641F0020F01A0020F818002010B50A4866
:1036500001210170094800240460094804600948F8
:10366000692101708521417020200221FEF794F923
:10367000FFF746FA204610BD601F0020641F00209F
:10368000F01A0020F81800200020704780B5074984
:10369000884206D00649884206D10020FFF70CFD7B
:1036A00002E00020FFF7DCFC002080BD010000806C
:1036B0000200008080B50749884206D0064988424A
:1036C00006D10020FFF7F8FC02E00020FFF7C8FC5D
:1036D000002080BD0100008002000080024900201F
:1036E0000860024908607047B0200020B420002024
:1036F00010B507484F2101700024447001218170EA
:103700000221C1700421FEF7BFFD204610BDC04656
:103710000018002070B582B06D464F262E70002430
:103720006C700220A8700320E8702C7105212846D7
:10373000FEF7AAFD2E706C700120A870E8700421BD
:103740002846FEF7A1FD204602B070BD10B582B03C
:1037500001A84F21017000244470012181700221D1
:10376000C1700421FEF790FD204602B010BD00009C
:10377000B0B582B00E48002404600E48046068466C
:103780004F2505704470052585700425C5700125F9
:1037900005714171032A02D8D000074CC440684625
:1037A0008471C3710821FEF76FFD002002B0B0BD27
:1037B000B0200020B42000200104030210B582B024
:1037C00068464F2202700024447005228270042251
:1037D000C2700122027141718471C4710821FEF727
:1037E00053FD204602B010BDB0B582B00D4668460C
:1037F000502101700024447003218170C570402164
:10380000017144710621FEF73FFD8020054201D180
:10381000074800E0054801687F2215400122AA40C0
:103820000A430260204602B0B0BDC046B02000206E
:10383000B420002070B582B00D466846502101705A
:103840000024447003218170C57080260671447184
:103850000621FEF719FD354201D1074800E0054871
:1038600001687F2215400122AA4091430160204651
:1038700002B070BDB0200020B420002080200142A2
:1038800001D0064800E0044800687F221140012270
:103890008A400240D0B27047B4200020B0200020FF
:1038A00010B582B068464F22027000244470022294
:1038B00082700322C27001710521FEF7E5FC2046EB
:1038C00002B010BDB0B582B01C4615466846502205
:1038D0000270E21C130A43708270C17020210171D2
:1038E00044710621FEF7D0FC28462146FEF7CCFCA9
:1038F000002002B0B0BD10B582B0684650230370FE
:103900000024447003238370C1703021017142711F
:103910000621FEF7B9FC204602B010BD70B5154671
:103920000E4604460220002C11D04D208100204676
:1039300000F088FF002E02D0112000012650FC204C
:103940000121215425702046FFF7C8FE0020C0B297
:1039500070BD70B50446FC20012121544520800033
:1039600025180026F0002858002806D04068FEF7E9
:1039700027FB0246217920469047761C032EF1D181
:103980002046FFF7E3FE2046FFF7B2FE002070BDA1
:103990000223002A07D00023022804D8C0000818F8
:1039A000452189004250D8B2704780B5FFF7B2FE7A
:1039B000002080BDF0B581B00C4605464520800052
:1039C0002F1800262846314600F07CF9002808D040
:1039D000F00038580068FEF7F3FA02462846214600
:1039E0009047761C032EEDD1002001B0F0BDF0B55C
:1039F00081B00C460546452080002F180026284639
:103A0000314600F05FF9002808D0F00038584068CF
:103A1000FEF7D6FA0246284621469047761C032E2A
:103A2000EDD1002001B0F0BD70B504462120C600E4
:103A3000A519284600F0A7FBF4200121215087207A
:103A40004000205AF8216050A15D1F200840022844
:103A500008D001280BD000280ED12046294600F0BE
:103A60003FF90EE02046294600F002FB09E020461F
:103A7000294600F0D8FA04E0802001402046FFF7F4
:103A8000B3FE002070BDF0B583B0029204460191F0
:103A900000291ED04520800025182646FC36002728
:103AA0002046394600F00EF900280ED0F8002858BC
:103AB0008069002809D03178032906D1FEF780FA01
:103AC000034620460199029A98477F1C032FE7D1AD
:103AD00035E0F4202058032831D1902020588C2143
:103AE000615822468C3281420AD9091A11608142FA
:103AF00000D301468AB22046029900F00FFD1EE075
:103B00004520800026182746FC37002520462946F8
:103B100000F0D8F800280CD0E800305800690028E0
:103B200007D03978032904D1FEF74AFA0146204626
:103B300088476D1C032DE9D1204600F0F6FC0020DB
:103B400003B0F0BDF0B581B00446009100291DD04E
:103B50004520800027182546FC35002620463146A2
:103B600000F0B0F800280DD0F00038584069002867
:103B700008D02978032905D1FEF722FA024620460B
:103B800000999047761C032EE8D151E0F42020588C
:103B9000022845D1E069256AA8420BD9401BE061A3
:103BA00013210A01A1584919A15082B2204600F000
:103BB000A7FC35E0A6693046294600F053FDAE4229
:103BC0000FD300290DD1F82020582746F837864218
:103BD00007D20025204629462A4600F091FC3D6088
:103BE0001EE04520800026182746FC370025204689
:103BF000294600F067F800280CD0E8003058C0686B
:103C0000002807D03978032904D1FEF7D9F90146F5
:103C1000204688476D1C032DE9D1204600F091FC19
:103C2000012001026018615C012901D100210170AD
:103C3000002001B0F0BD70B5044690204021215015
:103C40002162FC20012121544520800026180025F6
:103C50002046294600F036F8002808D0E800305801
:103C60004068FEF7ADF902462179204690476D1C69
:103C7000032DEDD1002070BD01740020704700209D
:103C800070470020704770B50446FC20205C032874
:103C900016D145208000261800252046294600F030
:103CA00011F8002809D0E8003058C069002804D075
:103CB000FEF786F90146204688476D1C032DECD19E
:103CC000002070BD02460020022908D8C800101844
:103CD0004521890041580120002900D1084670473C
:103CE00080B54A78042A08DD072A0FDC052A14D09B
:103CF000062A1BD100F021F81DE0002A10D0012A6D
:103D000017D0032A12D100F03BF914E0082A0AD098
:103D1000092A0BD100F0C3F80DE000F09BF80AE08F
:103D200000F00BF907E000F0F1F804E000F071F9A1
:103D300001E000F044F9002080BDB0B582B00D462E
:103D400004466988080A052813DC01281CD00228CB
:103D500025D003283AD1C8B202283CDC002865D01F
:103D600001286DD0022831D1112000012058C068EF
:103D70000EE006281DD0072825D00F2826D11120B7
:103D800000012058C06903E011200001205800689C
:103D9000FEF716F90246207C01A9904734E0452041
:103DA00080002058002821D0217C002926D0C06A1C
:103DB00025E0207C002809D14520800020580028DB
:103DC00004D0406B1BE0207C002810D02046294600
:103DD00000F01FF928E003282DD0042835D005284D
:103DE000F4D11120000120588069D1E70DE0452071
:103DF000800020580028E9D0006B00E0806AFEF7C0
:103E0000DFF8014601A88847014601A80288002A78
:103E10000AD0E888002807D0824200D3024601A8D1
:103E20000280204600F056FB02B0B0BD1120000118
:103E300020584068ACE71120000120580069A7E72E
:103E40001120000120588068A2E7112000012058AD
:103E500040699DE770B50446888800280BD1C88862
:103E6000002808D148887F260640FC20205C254693
:103E7000FC35032803D1204600F0CBF870BDFE20AE
:103E80002654F1B22046FFF70BFD204600F04DFB13
:103E900002200121002E00D10846287070BD70B5A7
:103EA0000D460446AE78022E1DD2FC20215C204631
:103EB000FC30032907D0022915D1002E22D06660DC
:103EC0000321017009E0002E12D06068864219D0EB
:103ED000C1B22046FFF78BFD666020463146FFF7F2
:103EE00069FD02280ED12046294600F092F870BDE7
:103EF00002210170666020463146FFF778FD2046BA
:103F000000F013FB204600F010FB70BD80B5CA889E
:103F1000012A0AD1FC22825C032A09D0022A04D198
:103F2000002181600146083103E000F072F880BD95
:103F3000011D012200F0CEFA80BDB0B50446FC2080
:103F4000205CFE220240022A16D10120E0604120BE
:103F50008000215825460C350320002905D0204635
:103F600000F0EFFAE16802200843E06002222046F8
:103F7000294600F0AFFAB0BD204600F04AF8B0BDC7
:103F8000B0B50D4604466888012817D1412080004D
:103F900001212150287902280DD8C0002018452180
:103FA00089004058002806D08068FEF709F80246CC
:103FB000204629469047204600F0B7FAB0BDB0B57C
:103FC0000D460446FC20205CFE21014002291BD145
:103FD000688801281CD141208000002121502879C7
:103FE00002280DD8C000201845218900405800281B
:103FF00006D08068FDF7E4FF024620462946904738
:10400000204600F092FAB0BD2046294600F001F8A3
:10401000B0BD10B504468021FFF7E6FB0021204625
:10402000FFF7E2FB10BDB0B50D460446FC20205C56
:10403000032817D12879022814D8C0002018452158
:104040008900405800280DD08068FDF7B9FF02466E
:10405000204629469047E888002807D1204600F0EE
:1040600064FA03E020462946FFF7D3FF0020B0BDE5
:1040700070B50D4604462878602101402E7920292C
:1040800010D1022E0ED8F00020184521890040588A
:10409000002807D08068FDF793FF02462046294696
:1040A00090476EE06878002817D001281ED00328BA
:1040B00067D1FC20205C03281CD16888002808D127
:1040C00080203043802804D020463146FFF78CFB07
:1040D0002E79022E52D8F00043E0FC20205C032809
:1040E00018D0022811D170060AD14AE0FC20205CC9
:1040F000032829D0022808D180203043802840D0CE
:1041000020463146FFF770FB3BE020462946FFF78B
:1041100080FF36E0254614352046843080210E424B
:1041200000D1054620463146FFF7A8FB01210028B3
:1041300000D101467F200640300129502918022273
:10414000204600F0C7F91CE06888002819D17006E5
:1041500014D020463146FFF76DFB287902280DD890
:10416000C0002018452189004058002806D08068EA
:10417000FDF726FF0246204629469047204600F0DC
:10418000D4F9002070BD0A7802704A7842708A78AB
:10419000CB781B02134343800A794B791B021343EC
:1041A00083808A79C97909021143C1807047F0B5CB
:1041B00083B00D46044602A80027078001A80770B7
:1041C000297860200840002810D0202838D168784D
:1041D00001460A39022933D302281CD003281AD0F9
:1041E00020462946FFF715FF022729E068780B28AB
:1041F00014D00A280FD0062822D16888000A002788
:1042000021280FD022283A46394616D102AE304630
:1042100000F058F80AE001A901220EE0204600F063
:1042200084F90DE002AE304600F032F801463288E3
:10423000E888824200D302463280204600F04AF9E4
:10424000F8B203B0F0BDF0B581B004468221032678
:10425000402532462B46FFF78BFA02272046394687
:1042600032462B46FFF784FA204639462A46FFF7A6
:1042700042FB002001B0F0BD10B504468221FFF7DB
:104280009DFA02212046FFF799FA002010BD000098
:1042900043218900084A515C0922002904D00129E0
:1042A00005D10749794404E00449794401E000223A
:1042B0001146028008467047B82000205A160000B8
:1042C00054160000F0B581B0024643208000144926
:1042D000085C222400281AD001281BD11048812113
:1042E0000327402600923A463346FFF741FA01255C
:1042F0000B4829463A463346FFF73AFA084829461A
:104300003246FFF7F8FA009A0748784404E0054877
:10431000784401E000242046148001B0F0BDC0467E
:10432000B82000201F1600000316000080B50129E8
:1043300003D103480121FEF725F9002080BDC046C6
:10434000781A0020B0B5144601290DD1012540226C
:104350002946FFF7D0FA2846FDF74AF802460348F7
:1043600021462B46FEF770F90020B0BD781A0020D8
:10437000B0B5144602291BD102214022FFF7BBFA37
:104380000C4D2878002813D10220FDF731F80246A1
:104390000C4878442146FCF777FE022808D101201A
:1043A0002870054807210170044800680449088006
:1043B0000020B0BD5C1A0020641A0020F018002014
:1043C000661A0020D3D1FFFF1220088001487844EC
:1043D0007047C04616160000042008800148784443
:1043E0007047C046181600000E2008800148784427
:1043F0007047C0460C1600000E2008800148784423
:104400007047C0460A1600000A2008800148784418
:104410007047C046081600000E2008800148784406
:104420007047C046EA1500000E2008800148784415
:104430007047C046DA15000070B504464D2085006F
:10444000164800212A46FCF7C7FE002C22D0134C48
:104450000026204631462A46FCF7BEFE1249794422
:1044600020463246FFF75AFA104A7A44304621462F
:10447000FFF78EFA01200E4A7A442146FFF788FAA8
:10448000FF22523206480749FEF772F82046FFF72E
:104490008CFA70BD0148FFF75CFA70BDB8200020AF
:1044A000781A0020F8180020F61400000A15000001
:1044B0003415000049210180014878447047C04606
:1044C000661500000A210180014878447047C04603
:1044D000A2150000B0B50C46F421022343508261BE
:1044E000C261132109014450016A8A4200D30A467D
:1044F00093B2002529462246FFF7E4F92846B0BDCD
:10450000B0B50C46016A8A4200D30A4693B2002530
:1045100029462246FFF7D6F92846B0BD10B500243B
:104520002146FFF7E8F9204610BD10B5F42104221A
:1045300042500024214622462346FFF7C3F9204675
:1045400010BD10B5F4210522425000242146224618
:10455000FFF7D1F9204610BD002243088B4274D3E7
:1045600003098B425FD3030A8B4244D3030B8B4274
:1045700028D3030C8B420DD3FF22090212BA030C7D
:104580008B4202D31212090265D0030B8B4219D35E
:1045900000E0090AC30B8B4201D3CB03C01A52417E
:1045A000830B8B4201D38B03C01A5241430B8B42C6
:1045B00001D34B03C01A5241030B8B4201D30B03AF
:1045C000C01A5241C30A8B4201D3CB02C01A5241D6
:1045D000830A8B4201D38B02C01A5241430A8B4299
:1045E00001D34B02C01A5241030A8B4201D30B0282
:1045F000C01A5241CDD2C3098B4201D3CB01C01A9C
:10460000524183098B4201D38B01C01A52414309A5
:104610008B4201D34B01C01A524103098B4201D393
:104620000B01C01A5241C3088B4201D3CB00C01A00
:10463000524183088B4201D38B00C01A5241430878
:104640008B4201D34B00C01A5241411A00D201469D
:10465000524110467047FFE701B5002000F0F0F826
:1046600002BDC0460029F7D076E7704703460B43EA
:104670007FD4002243088B4274D303098B425FD35B
:10468000030A8B4244D3030B8B4228D3030C8B4287
:104690000DD3FF22090212BA030C8B4202D312126D
:1046A000090265D0030B8B4219D300E0090AC30B42
:1046B0008B4201D3CB03C01A5241830B8B4201D3EF
:1046C0008B03C01A5241430B8B4201D34B03C01AD8
:1046D0005241030B8B4201D30B03C01A5241C30A50
:1046E0008B4201D3CB02C01A5241830A8B4201D3C1
:1046F0008B02C01A5241430A8B4201D34B02C01AAB
:104700005241030A8B4201D30B02C01A5241CDD24F
:10471000C3098B4201D3CB01C01A524183098B429A
:1047200001D38B01C01A524143098B4201D34B0183
:10473000C01A524103098B4201D30B01C01A5241E6
:10474000C3088B4201D3CB00C01A524183088B426D
:1047500001D38B00C01A524143088B4201D34B0056
:10476000C01A5241411A00D20146524110467047C8
:104770005DE0CA0F00D04942031000D340425340CD
:1047800000229C4603098B422DD3030A8B4212D38D
:10479000FC22890112BA030A8B420CD389019211BF
:1047A0008B4208D3890192118B4204D389013AD0FC
:1047B000921100E08909C3098B4201D3CB01C01AD1
:1047C000524183098B4201D38B01C01A52414309E4
:1047D0008B4201D34B01C01A524103098B4201D3D2
:1047E0000B01C01A5241C3088B4201D3CB00C01A3F
:1047F000524183088B4201D38B00C01A5241D9D257
:1048000043088B4201D34B00C01A5241411A00D2D7
:104810000146634652415B10104601D34042002BD3
:1048200000D54942704763465B1000D3404201B552
:10483000002000F005F802BD0029F8D016E7704707
:104840007047C04610B5002200F006F810BDC04603
:1048500010B500F009F810BD130010B50A001900DA
:1048600000F040F810BDC04670B50F2A32D90C00D8
:1048700004430B00A40731D115000400103D2D099D
:1048800001352D0149191E6826605E6866609E68C4
:10489000A660DE681033E66010349942F3D10F232E
:1048A00045191340032B1BD91C1F0023A4080134F6
:1048B000A400CE58EE5004339C42FAD103232D19A4
:1048C00009191A4005D00023CC5CEC5401339A42FC
:1048D000FAD170BD0500002AF5D1FAE70500F2E72C
:1048E0001A00F8E770B583073FD0541E002A3BD06A
:1048F000CEB20300032503E0621E002C34D0140066
:1049000001335A1E16702B42F6D1032C24D9FF25F1
:104910000D402A0215432A0415430F2C11D92600F5
:10492000103E3609013636011A009B191560556094
:104930009560D56010329342F8D10F221440032CB9
:104940000AD9261FB6080136B6001A009B1920C2E4
:104950009342FCD103221440002C05D0C9B21C198B
:10496000197001339C42FBD170BD14000300CCE7E9
:10497000F0C041464A4653465C466D4676467EC088
:104980002838F0C80020704710307CC890469946FF
:10499000A246AB46B54608C82838F0C8081C00D166
:1049A0000120184710B5830727D00378002B26D0A5
:1049B0000300032102E01A78002A1CD001330B42C5
:1049C000F9D119680F4A104C8A188A4322420FD134
:1049D000043319680B4A8A188A43224208D10433E7
:1049E0001968084A8A188A432242F1D000E001334C
:1049F0001A78002AFBD1181A10BD0300E1E7002045
:104A0000FAE7C046FFFEFEFE808080802020202046
:104A10002020202020202020202020202000303195
:104A200032333435363738394142434445463132E2
:104A30003334353637383941424344454647484A8E
:104A40004B4C4D4E505152535455565758595A612C
:104A500062636465666768696A6B6D6E6F707172B8
:104A6000737475767778797A6F00900167006A8041
:104A70005532465F56329000010990006E006D007D
:104A8000FFFFFFFF0000000048656C6C6F204F4E79
:104A9000540045584954005369676E2054780055B6
:104AA00070005369676E00446F776E0044656E79DD
:104AB0002054780044656E7900312F3200322F3255
:104AC00000000000030000003C004001A4010000C1
:104AD00001000000000000000000000000000000D5
:104AE00000000000000000000000000000000000C6
:104AF00000000000000000000000000003000000B3
:104B0000000040013C00000001000000FFFFFF002A
:104B1000FFFFFF0000000000000000000000000098
:104B20000000000000000000000000000000000085
:104B300000000000020050000000A0003C00000047
:104B40000100000000000000FFFFFF0004A00000C3
:104B5000884AD0C0000000000000000000000000F3
:104B600000000000000000000000000081006E0056
:104B7000E10064002800000601000000FFFFFF00C4
:104B80000000000004A00000924AD0C00000000015
:104B900099AE3700F9F9F900DD2DD0C00000000012
:104BA000000000000200000000003C003C0000008B
:104BB0000100000000000000FFFFFF0004A0000053
:104BC0002020002000000000000000000000000085
:104BD00000000000000000000000000003000000D2
:104BE0000000800020000000010000000000000024
:104BF000FFFFFF00000000000000000000000000B8
:104C000000000000000000000000000000000000A4
:104C100000000000070200000C0080000B000000F4
:104C200000000000FFFFFF000000000008800000FF
:104C3000884AD0C000000000000000000000000012
:104C4000000000000000000000000000050003005C
:104C50000C0007000700000000000000FFFFFF003D
:104C6000000000000000070000000000000000003D
:104C70000000000000000000000000000000000034
:104C800000000000050075000B0007000700000091
:104C900000000000FFFFFF000000000000001B00FC
:104CA0000000000000000000000000000000000004
:104CB00000000000000000000000000003000000F1
:104CC0000000800020000000010000000000000043
:104CD000FFFFFF00000000000000000000000000D7
:104CE00000000000000000000000000000000000C4
:104CF0000000000007020A000A006C000B008A0096
:104D000000000000FFFFFF00000000000A8000001C
:104D100078200020000000000000000000000000DB
:104D200000000000000000000000000007020A0070
:104D300015006C000B008A0000000000FFFFFF0060
:104D4000000000000A8000008A200020000000000F
:104D50000000000000000000000000000000000053
:104D600000000000050071000C00070007000000B3
:104D700000000000FFFFFF0000000000000007002F
:104D80000000000000000000000000000000000023
:104D9000000000000000000000000000050003000B
:104DA0000C0007000700000000000000FFFFFF00EC
:104DB0000000000000000C000000000000000000E7
:104DC00000000000000000000000000000000000E3
:104DD0000000000003000000000080002000000030
:104DE0000100000000000000FFFFFF0000000000C5
:104DF00000000000000000000000000000000000B3
:104E000000000000000000000000000007020A008F
:104E10000A006C000B008A0000000000FFFFFF008A
:104E2000000000000A8000008A200020000000002E
:104E30000000000000000000000000000000000072
:104E40000000000007020A0015006C000B008A0039
:104E500000000000FFFFFF00000000000A800000CB
:104E60009C20002000000000000000000000000066
:104E700000000000000000000000000005007100BC
:104E80000C0007000700000000000000FFFFFF000B
:104E9000000000000000070000000000000000000B
:104EA0000000000000000000000000000000000002
:104EB00000000000050003000C00070007000000D0
:104EC00000000000FFFFFF000000000000000B00DA
:104ED00000000000000000000000000000000000D2
:104EE00000000000000000000000000003000000BF
:104EF0003C004001A401000001000000000000008F
:104F000000000000000000000000000000000000A1
:104F10000000000000000000000000000000000091
:104F20000000000003000000000040013C00000001
:104F300001000000FFFFFF00FFFFFF000000000076
:104F40000000000000000000000000000000000061
:104F5000000000000000000000000000020014003B
:104F6000000040013C0000000100000000000000C3
:104F7000FFFFFF0004A00000974AD0C0000000001F
:104F80000000000000000000000000000000000021
:104F90000000000081000000E1006400280000061D
:104FA00001000000FFFFFF000000000004A000005F
:104FB0009F4AD0C00000000099AE3700F9F9F9000F
:104FC0006130D0C0000000000000000081006E00D1
:104FD000E10064002800000601000000FFFFFF0060
:104FE0000000000004A00000A24AD0C000000000A1
:104FF00099AE3700F9F9F900BD29D0C000000000D2
:10500000000000008100DC00E100640028000006D0
:1050100001000000FFFFFF000000000004A00000EE
:10502000A74AD0C00000000099AE3700F9F9F90096
:10503000B930D0C0000000000000000002000000F5
:1050400000003C003C0000000100000000000000E7
:10505000FFFFFF0004A0000020200020000000004F
:105060000000000000000000000000000000000040
:1050700000000000030000003C004001A40100000B
:10508000010000000000000000000000000000001F
:105090000000000000000000000000000000000010
:1050A00000000000000000000000000003000000FD
:1050B000000040013C00000001000000FFFFFF0075
:1050C000FFFFFF00000000000000000000000000E3
:1050D00000000000000000000000000000000000D0
:1050E0000000000002001400000040013C0000002D
:1050F0000100000000000000FFFFFF0004A000000E
:10510000AC4AD0C000000000000000000000000019
:10511000000000000000000000000000810000000E
:10512000E10064002800000601000000FFFFFF000E
:105130000000000004A000009F4AD0C00000000052
:1051400099AE3700F9F9F9006130D0C000000000D5
:105150000000000081006E00E100640028000006ED
:1051600001000000FFFFFF000000000004A000009D
:10517000B44AD0C00000000099AE3700F9F9F90038
:105180004D36D0C000000000000000008100DC00AF
:10519000E10064002800000601000000FFFFFF009E
:1051A0000000000004A00000A74AD0C000000000DA
:1051B00099AE3700F9F9F900B930D0C0000000000D
:1051C000000000000200000000003C003C00000065
:1051D0000100000000000000FFFFFF0004A000002D
:1051E000202000200000000000000000000000005F
:1051F00000000000000000000000000003000000AC
:1052000000008000200000000100000000000000FD
:10521000FFFFFF0000000000000000000000000091
:10522000000000000000000000000000000000007E
:10523000000000000300030001000C000200000059
:1052400001000000FFFFFF00000000000000000060
:10525000000000000000000000000000000000004E
:1052600000000000000000000000000003007100CA
:1052700001000C000200000001000000FFFFFF0021
:10528000000000000000000000000000000000001E
:10529000000000000000000000000000000000000E
:1052A0000000000007020000140080000B00000056
:1052B00000000000FFFFFF00000000000880000069
:1052C000AC4AD0C000000000000000000000000058
:1052D00000000000000000000000000005000300C6
:1052E0000C0007000700000000000000FFFFFF00A7
:1052F0000000000000000B000000000000000000A3
:10530000000000000000000000000000000000009D
:1053100000000000050075000D00070007000000F8
:1053200000000000FFFFFF000000000000000C0074
:10533000000000000000000000000000000000006D
:10534000000000000000000000000000030000005A
:10535000B40040012C01000001000000000000002A
:10536000000000000000000000000000000000003D
:10537000000000000000000000000000000000002D
:10538000000000000300000000004001B400000025
:1053900001000000FFFFFF00FFFFFF000000000012
:1053A00000000000000000000000000000000000FD
:1053B00000000000000000000000000002001400D7
:1053C000000040013C00000001000000000000005F
:1053D000FFFFFF0004A000003020002000000000BC
:1053E00000000000000000000000000000000000BD
:1053F00000000000020014003C0040013C000000DE
:105400000100000000000000FFFFFF0004A00000FA
:10541000422000200000000000000000000000000A
:105420000000000000000000000000000200140066
:10543000780040013C000000010000000000000076
:10544000FFFFFF0004A00000542000200000000027
:10545000000000000000000000000000000000004C
:105460000000000081000000E10064002800000648
:1054700001000000FFFFFF000000000004A000008A
:105480009F4AD0C00000000099AE3700F9F9F9003A
:105490006130D0C000000000000000008100DC008E
:1054A000E10064002800000601000000FFFFFF008B
:1054B0000000000004A00000A74AD0C000000000C7
:1054C00099AE3700F9F9F900B930D0C000000000FA
:1054D000000000000200000000003C003C00000052
:1054E0000100000000000000FFFFFF0004A000001A
:1054F000202000200000000000000000000000004C
:105500000000000000000000000000000300000098
:1055100000008000200000000100000000000000EA
:10552000FFFFFF000000000000000000000000007E
:10553000000000000000000000000000000000006B
:1055400000000000070200000A0014000B008A009F
:1055500000000000FFFFFF00000000000A800000C4
:10556000B94AD0C0000000000000000000000000A8
:1055700000000000000000000000000007020A0018
:105580000F006C000B008A0000000000FFFFFF000E
:10559000000000000A800000302000200000000011
:1055A00000000000000000000000000000000000FB
:1055B0000000000007020A001A006C000B008A00BD
:1055C00000000000FFFFFF00000000000A80000054
:1055D0004220002000000000000000000000000049
:1055E00000000000000000000000000005000300B3
:1055F0000C0007000700000000000000FFFFFF0094
:105600000000000000000B0000000000000000008F
:10561000000000000000000000000000000000008A
:1056200000000000050075000D00080006000000E5
:1056300000000000FFFFFF000000000000000C0061
:10564000000000000000000000000000000000005A
:105650000000000000000000000000000300000047
:105660000000800020000000010000000000000099
:10567000FFFFFF000000000000000000000000002D
:10568000000000000000000000000000000000001A
:1056900000000000070200000A0014000B008A004E
:1056A00000000000FFFFFF00000000000A80000073
:1056B000BD4AD0C000000000000000000000000053
:1056C00000000000000000000000000007020A00C7
:1056D0000F006C000B008A0000000000FFFFFF00BD
:1056E000000000000A80000054200020000000009C
:1056F00000000000000000000000000000000000AA
:105700000000000007020A001A006C000B008A006B
:1057100000000000FFFFFF00000000000A80000002
:1057200066200020000000000000000000000000D3
:105730000000000000000000000000000500030061
:105740000C0007000700000000000000FFFFFF0042
:105750000000000000000B0000000000000000003E
:105760000000000000000000000000000000000039
:1057700000000000050075000D0008000600000094
:1057800000000000FFFFFF000000000000000C0010
:105790000000000000000000000000000000000009
:1057A00000000000000000000000000003000000F6
:1057B0000000800020000000010000000000000048
:1057C000FFFFFF00000000000000000000000000DC
:1057D00000000000000000000000000000000000C9
:1057E000000000000300030001000C0002000000A4
:1057F00001000000FFFFFF000000000000000000AB
:105800000000000000000000000000000000000098
:105810000000000000000000000000000300710014
:1058200001000C000200000001000000FFFFFF006B
:105830000000000000000000000000000000000068
:105840000000000000000000000000000000000058
:105850000000000007020000140080000B000000A0
:1058600000000000FFFFFF000000000008800000B3
:10587000974AD0C0000000000000000000000000B7
:105880000000000000000000000000000500030010
:105890000C0007000700000000000000FFFFFF00F1
:1058A0000000000000000B000000000000000000ED
:1058B00000000000000000000000000000000000E8
:1058C00000000000050075000D0008000600000043
:1058D00000000000FFFFFF000000000000000C00BF
:1058E00000000000000000000000000000000000B8
:1058F000000000000000000000000000092111016C
:1059000021012222000000000921110100012222B0
:105910000006D0F10901A1010903150026FF007559
:1059200008954081080904150026FF007508954078
:105930009108C006A0FF0901A1010903150026FF77
:10594000007508954081080904150026FF007508B8
:1059500095409108C0000000C943D0C0D943D0C0D1
:10596000E943D0C0F943D0C00944D0C01944D0C0E5
:105970002944D0C0000000004742D0C07942D0C0C6
:10598000AF41D0C000000000000000000000000097
:105990007143D0C0000000000000000000000000C3
:1059A000B544D0C0B544D0C0B544D0C0C544D0C0C3
:1059B0004742D0C07942D0C0AF41D0C00000000003
:1059C000000000002D43D0C04543D0C000000000BF
:1059D0000000000000000000B544D0C0B544D0C0B5
:1059E000B544D0C0C544D0C0120100020000004040
:1059F000972C0100000201020301040309040E03B5
:105A00004C00650064006700650072000E034E00E4
:105A100061006E006F00200053000A033000300068
:105A20003000310009024900020102C032090400BD
:105A300000020300000209211101000122220007D7
:105A4000058203400001070502034000010904012B
:105A50000002030101020921110121012222000794
:105A6000058103400001070501034000010000001B
:105A70000A060002000000400100000000000000D3
:04000005C0D0000166
:00000001FF
